{"abi":[{"type":"constructor","inputs":[],"stateMutability":"nonpayable"},{"type":"function","name":"addPatient","inputs":[{"name":"_patientAddress","type":"address","internalType":"address"},{"name":"_idvalid","type":"bool","internalType":"bool"},{"name":"_nationality","type":"string","internalType":"string"},{"name":"_age","type":"uint256","internalType":"uint256"}],"outputs":[],"stateMutability":"nonpayable"},{"type":"function","name":"checkPatient","inputs":[],"outputs":[{"name":"","type":"bool","internalType":"bool"}],"stateMutability":"view"},{"type":"function","name":"fetchPatient","inputs":[{"name":"_walletAddress","type":"address","internalType":"address"}],"outputs":[{"name":"","type":"tuple","internalType":"struct Patients.patientDetails","components":[{"name":"isRegistered","type":"bool","internalType":"bool"},{"name":"IDvalid","type":"bool","internalType":"bool"},{"name":"nationality","type":"string","internalType":"string"},{"name":"age","type":"uint256","internalType":"uint256"}]}],"stateMutability":"view"},{"type":"function","name":"owner","inputs":[],"outputs":[{"name":"","type":"address","internalType":"address"}],"stateMutability":"view"},{"type":"function","name":"registeredPatients","inputs":[{"name":"","type":"address","internalType":"address"}],"outputs":[{"name":"isRegistered","type":"bool","internalType":"bool"},{"name":"IDvalid","type":"bool","internalType":"bool"},{"name":"nationality","type":"string","internalType":"string"},{"name":"age","type":"uint256","internalType":"uint256"}],"stateMutability":"view"},{"type":"function","name":"renounceOwnership","inputs":[],"outputs":[],"stateMutability":"nonpayable"},{"type":"function","name":"toggleIDstatus","inputs":[],"outputs":[],"stateMutability":"nonpayable"},{"type":"function","name":"transferOwnership","inputs":[{"name":"newOwner","type":"address","internalType":"address"}],"outputs":[],"stateMutability":"nonpayable"},{"type":"event","name":"OwnershipTransferred","inputs":[{"name":"previousOwner","type":"address","indexed":true,"internalType":"address"},{"name":"newOwner","type":"address","indexed":true,"internalType":"address"}],"anonymous":false},{"type":"error","name":"OwnableInvalidOwner","inputs":[{"name":"owner","type":"address","internalType":"address"}]},{"type":"error","name":"OwnableUnauthorizedAccount","inputs":[{"name":"account","type":"address","internalType":"address"}]}],"bytecode":{"object":"0x608060405234801561000f575f5ffd5b50335f73ffffffffffffffffffffffffffffffffffffffff168173ffffffffffffffffffffffffffffffffffffffff1603610081575f6040517f1e4fbdf70000000000000000000000000000000000000000000000000000000081526004016100789190610196565b60405180910390fd5b6100908161009660201b60201c565b506101af565b5f5f5f9054906101000a900473ffffffffffffffffffffffffffffffffffffffff169050815f5f6101000a81548173ffffffffffffffffffffffffffffffffffffffff021916908373ffffffffffffffffffffffffffffffffffffffff1602179055508173ffffffffffffffffffffffffffffffffffffffff168173ffffffffffffffffffffffffffffffffffffffff167f8be0079c531659141344cd1fd0a4f28419497f9722a3daafe3b4186f6b6457e060405160405180910390a35050565b5f73ffffffffffffffffffffffffffffffffffffffff82169050919050565b5f61018082610157565b9050919050565b61019081610176565b82525050565b5f6020820190506101a95f830184610187565b92915050565b6111b7806101bc5f395ff3fe608060405234801561000f575f5ffd5b5060043610610086575f3560e01c8063715018a611610059578063715018a6146100fe5780638da5cb5b146101085780639cdaaad814610126578063f2fde38b1461015957610086565b806320dfa6d11461008a5780633173580c146100a85780634f3143a0146100b257806358b290b7146100e2575b5f5ffd5b610092610175565b60405161009f91906108ee565b60405180910390f35b6100b06101c7565b005b6100cc60048036038101906100c79190610972565b6102c9565b6040516100d99190610a94565b60405180910390f35b6100fc60048036038101906100f79190610c34565b610478565b005b6101066105d4565b005b6101106105e7565b60405161011d9190610cc3565b60405180910390f35b610140600480360381019061013b9190610972565b61060e565b6040516101509493929190610d33565b60405180910390f35b610173600480360381019061016e9190610972565b6106d8565b005b5f60015f3373ffffffffffffffffffffffffffffffffffffffff1673ffffffffffffffffffffffffffffffffffffffff1681526020019081526020015f205f015f9054906101000a900460ff16905090565b6101cf61075c565b60015f3373ffffffffffffffffffffffffffffffffffffffff1673ffffffffffffffffffffffffffffffffffffffff1681526020019081526020015f205f015f9054906101000a900460ff1661025a576040517f08c379a000000000000000000000000000000000000000000000000000000000815260040161025190610dc7565b60405180910390fd5b5f60015f3373ffffffffffffffffffffffffffffffffffffffff1673ffffffffffffffffffffffffffffffffffffffff1681526020019081526020015f209050805f0160019054906101000a900460ff1615815f0160016101000a81548160ff02191690831515021790555050565b6102d16108ab565b60015f8373ffffffffffffffffffffffffffffffffffffffff1673ffffffffffffffffffffffffffffffffffffffff1681526020019081526020015f205f015f9054906101000a900460ff1661035c576040517f08c379a000000000000000000000000000000000000000000000000000000000815260040161035390610e2f565b60405180910390fd5b60015f8373ffffffffffffffffffffffffffffffffffffffff1673ffffffffffffffffffffffffffffffffffffffff1681526020019081526020015f206040518060800160405290815f82015f9054906101000a900460ff161515151581526020015f820160019054906101000a900460ff161515151581526020016001820180546103e790610e7a565b80601f016020809104026020016040519081016040528092919081815260200182805461041390610e7a565b801561045e5780601f106104355761010080835404028352916020019161045e565b820191905f5260205f20905b81548152906001019060200180831161044157829003601f168201915b505050505081526020016002820154815250509050919050565b61048061075c565b60015f8573ffffffffffffffffffffffffffffffffffffffff1673ffffffffffffffffffffffffffffffffffffffff1681526020019081526020015f205f015f9054906101000a900460ff161561050c576040517f08c379a000000000000000000000000000000000000000000000000000000000815260040161050390610ef4565b60405180910390fd5b604051806080016040528060011515815260200184151581526020018381526020018281525060015f8673ffffffffffffffffffffffffffffffffffffffff1673ffffffffffffffffffffffffffffffffffffffff1681526020019081526020015f205f820151815f015f6101000a81548160ff0219169083151502179055506020820151815f0160016101000a81548160ff02191690831515021790555060408201518160010190816105c091906110b2565b506060820151816002015590505050505050565b6105dc61075c565b6105e55f6107e3565b565b5f5f5f9054906101000a900473ffffffffffffffffffffffffffffffffffffffff16905090565b6001602052805f5260405f205f91509050805f015f9054906101000a900460ff1690805f0160019054906101000a900460ff169080600101805461065190610e7a565b80601f016020809104026020016040519081016040528092919081815260200182805461067d90610e7a565b80156106c85780601f1061069f576101008083540402835291602001916106c8565b820191905f5260205f20905b8154815290600101906020018083116106ab57829003601f168201915b5050505050908060020154905084565b6106e061075c565b5f73ffffffffffffffffffffffffffffffffffffffff168173ffffffffffffffffffffffffffffffffffffffff1603610750575f6040517f1e4fbdf70000000000000000000000000000000000000000000000000000000081526004016107479190610cc3565b60405180910390fd5b610759816107e3565b50565b6107646108a4565b73ffffffffffffffffffffffffffffffffffffffff166107826105e7565b73ffffffffffffffffffffffffffffffffffffffff16146107e1576107a56108a4565b6040517f118cdaa70000000000000000000000000000000000000000000000000000000081526004016107d89190610cc3565b60405180910390fd5b565b5f5f5f9054906101000a900473ffffffffffffffffffffffffffffffffffffffff169050815f5f6101000a81548173ffffffffffffffffffffffffffffffffffffffff021916908373ffffffffffffffffffffffffffffffffffffffff1602179055508173ffffffffffffffffffffffffffffffffffffffff168173ffffffffffffffffffffffffffffffffffffffff167f8be0079c531659141344cd1fd0a4f28419497f9722a3daafe3b4186f6b6457e060405160405180910390a35050565b5f33905090565b60405180608001604052805f151581526020015f15158152602001606081526020015f81525090565b5f8115159050919050565b6108e8816108d4565b82525050565b5f6020820190506109015f8301846108df565b92915050565b5f604051905090565b5f5ffd5b5f5ffd5b5f73ffffffffffffffffffffffffffffffffffffffff82169050919050565b5f61094182610918565b9050919050565b61095181610937565b811461095b575f5ffd5b50565b5f8135905061096c81610948565b92915050565b5f6020828403121561098757610986610910565b5b5f6109948482850161095e565b91505092915050565b6109a6816108d4565b82525050565b5f81519050919050565b5f82825260208201905092915050565b8281835e5f83830152505050565b5f601f19601f8301169050919050565b5f6109ee826109ac565b6109f881856109b6565b9350610a088185602086016109c6565b610a11816109d4565b840191505092915050565b5f819050919050565b610a2e81610a1c565b82525050565b5f608083015f830151610a495f86018261099d565b506020830151610a5c602086018261099d565b5060408301518482036040860152610a7482826109e4565b9150506060830151610a896060860182610a25565b508091505092915050565b5f6020820190508181035f830152610aac8184610a34565b905092915050565b610abd816108d4565b8114610ac7575f5ffd5b50565b5f81359050610ad881610ab4565b92915050565b5f5ffd5b5f5ffd5b7f4e487b71000000000000000000000000000000000000000000000000000000005f52604160045260245ffd5b610b1c826109d4565b810181811067ffffffffffffffff82111715610b3b57610b3a610ae6565b5b80604052505050565b5f610b4d610907565b9050610b598282610b13565b919050565b5f67ffffffffffffffff821115610b7857610b77610ae6565b5b610b81826109d4565b9050602081019050919050565b828183375f83830152505050565b5f610bae610ba984610b5e565b610b44565b905082815260208101848484011115610bca57610bc9610ae2565b5b610bd5848285610b8e565b509392505050565b5f82601f830112610bf157610bf0610ade565b5b8135610c01848260208601610b9c565b91505092915050565b610c1381610a1c565b8114610c1d575f5ffd5b50565b5f81359050610c2e81610c0a565b92915050565b5f5f5f5f60808587031215610c4c57610c4b610910565b5b5f610c598782880161095e565b9450506020610c6a87828801610aca565b935050604085013567ffffffffffffffff811115610c8b57610c8a610914565b5b610c9787828801610bdd565b9250506060610ca887828801610c20565b91505092959194509250565b610cbd81610937565b82525050565b5f602082019050610cd65f830184610cb4565b92915050565b5f82825260208201905092915050565b5f610cf6826109ac565b610d008185610cdc565b9350610d108185602086016109c6565b610d19816109d4565b840191505092915050565b610d2d81610a1c565b82525050565b5f608082019050610d465f8301876108df565b610d5360208301866108df565b8181036040830152610d658185610cec565b9050610d746060830184610d24565b95945050505050565b7f50617469656e74206e6f7420726567697374657265642e0000000000000000005f82015250565b5f610db1601783610cdc565b9150610dbc82610d7d565b602082019050919050565b5f6020820190508181035f830152610dde81610da5565b9050919050565b7f50617469656e74206e6f7420666f756e642e00000000000000000000000000005f82015250565b5f610e19601283610cdc565b9150610e2482610de5565b602082019050919050565b5f6020820190508181035f830152610e4681610e0d565b9050919050565b7f4e487b71000000000000000000000000000000000000000000000000000000005f52602260045260245ffd5b5f6002820490506001821680610e9157607f821691505b602082108103610ea457610ea3610e4d565b5b50919050565b7f50617469656e7420616c726561647920726567697374657265642e00000000005f82015250565b5f610ede601b83610cdc565b9150610ee982610eaa565b602082019050919050565b5f6020820190508181035f830152610f0b81610ed2565b9050919050565b5f819050815f5260205f209050919050565b5f6020601f8301049050919050565b5f82821b905092915050565b5f60088302610f6e7fffffffffffffffffffffffffffffffffffffffffffffffffffffffffffffffff82610f33565b610f788683610f33565b95508019841693508086168417925050509392505050565b5f819050919050565b5f610fb3610fae610fa984610a1c565b610f90565b610a1c565b9050919050565b5f819050919050565b610fcc83610f99565b610fe0610fd882610fba565b848454610f3f565b825550505050565b5f5f905090565b610ff7610fe8565b611002818484610fc3565b505050565b5b818110156110255761101a5f82610fef565b600181019050611008565b5050565b601f82111561106a5761103b81610f12565b61104484610f24565b81016020851015611053578190505b61106761105f85610f24565b830182611007565b50505b505050565b5f82821c905092915050565b5f61108a5f198460080261106f565b1980831691505092915050565b5f6110a2838361107b565b9150826002028217905092915050565b6110bb826109ac565b67ffffffffffffffff8111156110d4576110d3610ae6565b5b6110de8254610e7a565b6110e9828285611029565b5f60209050601f83116001811461111a575f8415611108578287015190505b6111128582611097565b865550611179565b601f19841661112886610f12565b5f5b8281101561114f5784890151825560018201915060208501945060208101905061112a565b8683101561116c5784890151611168601f89168261107b565b8355505b6001600288020188555050505b50505050505056fea264697066735822122093f795c345d4d0ce41785c667060ed7887997195c776fc9d8fe136706c7ca65264736f6c634300081e0033","linkReferences":{}},"methodIdentifiers":{"addPatient(address,bool,string,uint256)":"58b290b7","checkPatient()":"20dfa6d1","fetchPatient(address)":"4f3143a0","owner()":"8da5cb5b","registeredPatients(address)":"9cdaaad8","renounceOwnership()":"715018a6","toggleIDstatus()":"3173580c","transferOwnership(address)":"f2fde38b"},"id":26}